:020000040800F2
:1000000080D40120D9290008110400081304000835
:10001000170400081B0400081F040008000000006B
:1000200000000000000000000000000023040008A1
:100030002504000800000000270400082904000827
:10004000F3290008F3290008F3290008F329000820
:10005000F3290008F3290008F3290008F329000810
:10006000F3290008F3290008F3290008F329000800
:10007000F3290008F3290008F3290008F3290008F0
:10008000F3290008F3290008F3290008F3290008E0
:10009000F3290008F3290008F3290008F3290008D0
:1000A000F3290008F3290008F3290008F3290008C0
:1000B00065280008F3290008F3290008F32900083F
:1000C000F3290008F3290008F3290008F3290008A0
:1000D000F3290008F3290008F3290008F329000890
:1000E000F3290008F3290008F3290008F329000880
:1000F000F3290008F3290008F3290008F329000870
:10010000F329000807250008F3290008F32900084F
:10011000F3290008F3290008F3290008F32900084F
:10012000F3290008E3260008F3290008F329000852
:10013000F3290008F3290008F3290008F32900082F
:10014000F3290008F3290008F3290008F32900081F
:10015000F3290008F3290008F3290008F32900080F
:10016000F3290008F3290008F3290008F3290008FF
:10017000F3290008F3290008F3290008F3290008EF
:10018000F3290008F3290008DFF80CD007F0A6F9DE
:1001900000480047F102000880D4012030BF72B649
:1001A000704762B6704780F30888704770B50026C4
:1001B00003226C496C4805F07CFF06466A48D0E98A
:1001C0000443224606F041FC0646684B68486949EC
:1001D0000268654806F012FA0646634806F024FCF9
:1001E000064670BD10B5012063490860642002F026
:1001F000C5FB00206149C1F88002642002F0BEFB0B
:1002000001205D490860642002F0B8FB00205B49D2
:10021000C1F8800210BD10B55948016859A007F017
:10022000D1F95B4801685BA007F0CCF9544800683D
:100230000A21B0FBF1F056490968884202D35AA05E
:1002400007F0C0F910BD30B585B003225CA1464867
:1002500005F02FFF0446002C45D104AB0F22694660
:10026000414806F0B7F804462CB158A007F0AAF9A7
:10027000012005B030BD684607F0CCF8574908703A
:100280000DF1030007F0C6F8544948700DF106005F
:1002900007F0C0F8514988700DF1090007F0BAF86D
:1002A0004E49C87003A807F0B5F84C4908712E48AC
:1002B00006F0BAFB0446494B9A785978187801231E
:1002C00002F040FA0546454A1179D07800231A46D3
:1002D00002F026FA054642A007F074F938A006F0AD
:1002E0009BFE0020C5E742A007F06CF90120C0E7A3
:1002F00000BF00F0B2F900F0CAF900F0DBF9FFF737
:10030000A2FF00F0E1F944F29F1144F61F6002F0F1
:1003100071FAFFF780FFFFF765FF21E039480078A9
:10032000F0B1002014490860C9054862012188071E
:1003300002F09EFF0020334908704FF400600C4922
:1003400008600846008882B20A492F4800F08DFAFA
:100350002E490880FFF72AFF01200849C1F88002D2
:10036000DCE70000B0100020C810002028000020AA
:1003700024000020B00800208082404200804042DB
:1003800010000020D7DCC8DDC1BFA3BA256400007F
:100390000C000020B5B1C7B0CAA3D3E0C8DDC1BF0F
:1003A000A3BA256400000000CAA3D3E0BFD5BCE413
:1003B000D0A1D3DAB0D9B7D6D6AE31300000000024
:1003C00074696D652E74787400000000B6C1C8A110
:1003D000B9FDB3CCD6D0CAA7B0DC00000000002025
:1003E000C9E8D6C3CAB1BCE4B3C9B9A600000000CD
:1003F000B4F2BFAACAB1BCE4CEC4BCFECAA7B0DC8A
:100400000000000040000020582700201C000020B1
:10041000704700BFFEE700BFFEE700BFFEE700BF7A
:10042000FEE7704770477047704700000CB500202A
:10043000019000904A48006840F4803048490860C4
:1004400000BF4748006800F4003000900198401C4D
:100450000190009818B90198B0F5A04FF1D140482B
:10046000006800F4003010B10120009001E000208D
:1004700000900098012846D139484030006840F08B
:1004800080503749403108603648006840F44040A9
:100490003449086032480830006831490831086042
:1004A0000846006840F4004008600846006840F4D0
:1004B000A05008602C48091F0860081F006840F021
:1004C0008070091F086000BF2548006800F00070B8
:1004D0000028F9D040F2057024490860204808300F
:1004E000006820F003001E490831086008460068D3
:1004F00040F00200086000BF19480830006800F0B2
:100500000C000828F8D10CBD10B51948006840F45B
:100510007000174908601248006840F00100104957
:10052000086000200E49083108600D480068114934
:1005300008400B4908601048091D0860081F006842
:1005400020F48020091F0860002005490C31086054
:10055000FFF76CFF4FF0006005498039086010BD5F
:10056000003802400070004008544007003C024040
:1005700088ED00E0FFFFF6FE1030002400B587B0E4
:100580000121202002F040FC0121042002F01AFC8D
:1005900008220621764802F0D1FA08220721744881
:1005A00002F0CCFA4020059002208DF818000020BF
:1005B0008DF81A0003208DF8190001208DF81B001A
:1005C00005A96B4802F070FA8020059002208DF892
:1005D000180000208DF81A0003208DF81900012062
:1005E0008DF81B0005A9624802F05EFA4FF4612005
:1005F00001900020ADF810000C20ADF80E00002096
:10060000ADF80C00ADF80A00ADF8080001A9594892
:1006100002F028FC0121574802F08AFC0122402107
:10062000544802F091FC4021524802F096FC3920D7
:100630008DF8000000208DF801008DF802000120E7
:100640008DF80300684602F0DEF94FF480524A4903
:100650004A4800F0F2F807B000BD10B54FF4A060B2
:1006600002F0CCF94FF02061454801F0F7FFFFF7A9
:1006700085FFA82002F044F900F074F9002003F08F
:10068000A5F8022003F0A2F802F06EF810BD10B534
:100690000BE04FF4FA6002F071F93A48006808B9CB
:1006A000012000E000203749086000F01DFF00280D
:1006B000EFD110BD10B506F06FFD33490122086877
:1006C00032A105F0CEFC10BD00B587B006A9002010
:1006D00002F0A9FF05A9002003F029F89DF81700F2
:1006E0008DF80C009DF815008DF80D009DF8160092
:1006F0008DF80E009DF818008DF80F009DF8190078
:100700008DF810009DF810009DF80F109DF80E2038
:10071000CDE9002102909DF80D309DF80C201CA120
:10072000214806F05FFF06221F49204805F0C1FC62
:100730001F4908701D4806F077F91D4908701D4AC9
:100740001D4912A006F0B8FB1A480068006A801E16
:1007500018490968498948431849086015480068DC
:1007600040891549096848431549086007B000BD2C
:1007700000080240001401405817002058270020AC
:10078000286402408082404290000020303A0000FD
:10079000303A25642D25642D25642D25642D25648E
:1007A0002E62696E00000000B0100020C81000200A
:1007B0002C00002014000020080000201000002061
:1007C0000C000020014688884008CA88B0EB520F10
:1007D0000BD1087900F001008A7902F00102904201
:1007E00001D1002070470120FCE70220FAE710B594
:1007F00004462046FFF7E6FF20B1012804D0022876
:1008000004D104E0002010BD2089FCE700BFE0888F
:100810004008A188B0EB510F06DDE0884008A188B0
:10082000A0EB510080B2EEE7A0884008E188A0EB81
:1008300051002189081A80B2E5E710B500248388A9
:1008400064F34F035C089BB264F3000383800024CD
:10085000C38864F34F035C089BB264F30003C38056
:10086000016022F00303038110BD2DE9F04104462D
:100870000E4615462046FFF7BAFF074617B9002077
:10088000BDE8F081AF4200D2BDB22089A188A0EBC3
:100890005100A84210DDA288206800EB52012A46D0
:1008A000304606F0A5FDA08805EB5000A18860F356
:1008B0004F01A1802846E3E72089A388A0EB5302DB
:1008C000206800EB5301304606F092FD2389B4F80E
:1008D00004C0A3EB5C03EA1A2389A3EB5C03981919
:1008E000216806F085FD2079C043A18860F30001EE
:1008F000A1802089A188A0EB5100281A60F34F0144
:10090000A1802846BCE770B504460D462046FFF797
:100910006EFF2189081A86B20EB9002070BDAE4262
:1009200000DA35462089E188A0EB5100A84208DDB5
:10093000E08805EB5000E18860F34F01E180284634
:10094000ECE7A079C043E18860F30001E1802089F1
:10095000E188A0EB5100281A60F34F01E18028469E
:10096000DCE700001CB50121022002F02BFA012077
:1009700000908DF8040000208DF8060003208DF80B
:10098000050001208DF807006946044802F08CF844
:100990000121024802F0D0F81CBD00000004024012
:1009A0000020FE490860091D0860091D0860091D36
:1009B0000860FA4924310860091D0860091D0860B3
:1009C000F748F649383108600020091D0860704773
:1009D00001460020012900D011B9F24B197000E046
:1009E000262070470146ED4A121D106820F0FF00D6
:1009F00008431060704770B5044606E0E74834309D
:100A0000056805F0450000B100E0F7E700BF0420ED
:100A100002F004F920B1042002F00BF9032070BDAC
:100A2000012002F0FBF820B1012002F002F90120C0
:100A3000F5E7DA4810300068A04201D01020EEE758
:100A400040F2FF5002F0F5F8D44814300068082155
:100A50000840C0B2E3E72DE9FC4107460D460026F9
:100A600000240020009001900820CF490860102049
:100A70004860402088600020C8604FF480600861B2
:100A8000084602F09EF81020FFF7B5FF044614B1A7
:100A90002046BDE8FC81C54800880004C2490860C2
:100AA00037204860402088600020C8604FF4806094
:100AB0000861084602F085F83720FFF79CFF0446DE
:100AC0000CB12046E5E74FF0FF30B9490860082037
:100AD0004860302088600220C86000200861012042
:100AE0004861084602F082F80020AF4908603320D0
:100AF0004860402088600020C8604FF48060086132
:100B0000084602F05EF83320FFF775FF04460CB18B
:100B10002046BEE70DE04FF4001002F07FF840B130
:100B20009E48803000684DF82600761C022E00D3C7
:100B300007E09A483430006840F22A6108400028F3
:100B4000E9D000BF082002F069F820B1082002F0C7
:100B500070F804209DE7022002F060F820B1022026
:100B600002F067F8022094E7202002F057F820B145
:100B7000202002F05EF806208BE74FF4007002F0B0
:100B80004DF828B14FF4007002F053F8072080E7C9
:100B900040F2FF5002F04DF800980006009901F471
:100BA0007F4140EA0120009901F47F0140EA1120D1
:100BB000009940EA1160686001980006019901F40B
:100BC0007F4140EA0120019901F47F0140EA1120B0
:100BD000019940EA1160286020465AE77CB5054635
:100BE000002400200090019000260DB1022600E0B4
:100BF00000266A481430006800F0007008B10E202A
:100C00007CBD6A49098888B26946FFF724FF04461B
:100C10000CB12046F4E7019800F4802060B36348EB
:100C200000880004604908603720486040208860E0
:100C30000020C8604FF480600861084601F0C1FFE1
:100C40003720FFF7D8FE04460CB12046D8E75648B7
:100C50000660062054494860402088600020C86033
:100C60004FF480600861084601F0ABFF0620FFF7F3
:100C7000C2FE04462046C3E72520C1E770B50446FE
:100C800000254C480078032802D12725284670BD4E
:100C90004848007838B147480078012803D04548D3
:100CA0000078022819D1B4F5805F02D127252846A3
:100CB000EDE7E0B2FFF792FF054675B93748001D32
:100CC000006820F4C0503549091D086008460068D6
:100CD000204308600846006808602846D7E710B53A
:100CE00004463148046007202F494860402088604E
:100CF0000020C8604FF480600861084601F061FF81
:100D00000720FFF778FE10BDF0B501460020002255
:100D1000284B1B7881F85630244B1B88A1F854309F
:100D2000254B1B681A0E93090B70C2F383034B709B
:100D300002F003038B70204B1B68C3F30742CA7099
:100D40001D4B1B88C3F307220A711B4B1A784A718B
:100D50005B681A0E1301CB80174B5B68C3F3074225
:100D6000CB8843EA1213CB8002F00F030B72124BB5
:100D70009B88C3F30722D3094B72C2F380138B7293
:100D8000C2F34013CB72C2F300130B7300234B73F7
:100D9000084B1B78C3B1074B1B780FE0002C0140B8
:100DA000FF07C00038000020B014002034000020ED
:100DB000C414002030000020DC140020012B03D0DC
:100DC000FE4B1B78032B4FD193071B0D0B61FC4B84
:100DD0001A790B6943EA82030B61F94B9B681A0E7F
:100DE0000B6943EA92130B61C2F3C2030B7502F065
:100DF00007034B75F24B9B68C3F3074253098B758E
:100E0000C2F38203CB7593075B0F0B76EC4B1B8908
:100E1000C3F307220B7E43EAD2130B760B695B1CEC
:100E20000024C1E912340B7E9B1C012404FA03F355
:100E3000DC17D1E91256A5FB037C06FB03C305FBB7
:100E40000433C1E912730C7A0123A3400B6500241B
:100E5000D1E912650B6DA6FB037C05FB03C306FB02
:100E60000433C1E912732EE0D44B1B78022B2AD134
:100E7000D34B1A7993069B0A0B61D14B9B681A0ED0
:100E80000B6943EA02230B61CD4B9B68C3F3074216
:100E90000B6913430B61CA4B1B89C3F307220B6910
:100EA0005B1C4FF40074A3FB04464FF480630025E1
:100EB000A4FB037C06FB03C304FB0533C1E91273E7
:100EC0004FF400730B65C2F3801301F8193F9306CA
:100ED0005B0E4B70BA4B1A7A4B7843EAD2134B70C5
:100EE00002F07F038B70B64BDB681A0ED309CB7010
:100EF000C2F341130B71C2F382034B7193071B0FB3
:100F00008B71AF4BDB68C3F307428B7943EA9213D3
:100F10008B71C2F34013CB7100230B7202F00103FB
:100F20004B72A74B9B89C3F30722D3098B72C2F381
:100F30008013CB72C2F340130B73C2F300134B73D5
:100F4000C2F381038B7302F00303CB739C4B1A7BB8
:100F500053080B7401234B749A4B1B681A0ECA7406
:100F60001939984B1B68C3F307421402CC85954B83
:100F70001B88C3F30722CB8D1343CB85914B1A7883
:100F800014060C635B681A0E0B6B43EA02440C6395
:100F90008C4B5B68C3F307420B6B43EA02240C6380
:100FA000884B9B88C3F307220B6B13430B63854B62
:100FB0001A7934235A54834B9B681A0E35235A549A
:100FC000804B9B68C3F3074214068C637D4B1B89DF
:100FD000C3F307228B6B43EA02448C63794B1A7A82
:100FE0008B6B43EA02248C63764BDB681A0E8B6BA7
:100FF00013438B63734BDB68C3F307423C235B5C97
:1010000043EA12143C235C5413071C0DCC876D4B30
:101010009B89C3F30722CB8F1343CB87694B1A7B82
:10102000540840235C54012441235C54F0BD70B546
:1010300000264FF4803505E06348046804F045005D
:1010400000B103E02800A5F10105F5D100BF15B1FD
:1010500004F0040028B10326042001F0EAFD304624
:1010600070BD012001F0DAFD18B10126012001F068
:10107000E0FD40F2FF5001F0DCFD3046F0E72DE9E5
:10108000F04105460E464FF0000805E04E4807685F
:1010900007F0450000B100E0F8E700BF042001F0D0
:1010A000BDFD28B1042001F0C4FD0320BDE8F0819E
:1010B000012001F0B3FD20B1012001F0BAFD0120B3
:1010C000F4E7414824380068A84201D01020EDE739
:1010D00040F2FF5001F0ADFD3B482038046804F4B5
:1010E000604018B9200C30804046DFE704F400501F
:1010F00008B11320DAE704F4804008B11020D5E7E6
:1011000004F4004008B10F20D0E74046CEE738B5E0
:1011100000240120009001F04EFD10B92524204646
:1011200038BD26480078042825D0002027490860CB
:1011300002204860C02088600020C8604FF48060B2
:101140000861084601F03DFDFFF771FF04460CB150
:101150002046E5E71C48203800681A4908601A480C
:101160001C380068486018481838006888601648BD
:1011700014380068C8601148007858B10F480078EA
:10118000012807D00D480078062803D00B480078C6
:10119000022821D100200D4908600320486040202A
:1011A00088600020C8604FF480600861084601F044
:1011B00008FD69460320FFF762FF09E030000020C8
:1011C000DC140020EC140020342C0140B01400206A
:1011D00004460CB12046A3E7FE480078032816D148
:1011E000BDF800000004FC4908600320486040206E
:1011F00088600020C8604FF480600861084601F0F4
:10120000E0FCFFF714FF04460CB1204688E7F148E4
:10121000007804282AD0BDF80000F0490860BDF825
:1012200000000004EC49086009204860C020886084
:101230000020C8604FF480600861084601F0C1FCDE
:10124000FFF7F5FE04460CB1204669E7E448006864
:10125000E4490860E248001D00684860E048083042
:1012600000688860DE480C300068C860002057E7DE
:1012700010B506E0DA482030046804F0450000B1FB
:1012800000E0F7E700BF042001F0C8FC20B1042013
:1012900001F0CFFC032010BD40F2FF5001F0C9FC6B
:1012A0000020F8E770B500264FF4803506E0CC4802
:1012B0002030046804F0450000B103E02800A5F1E7
:1012C0000105F4D100BF15B104F0040028B10326D4
:1012D000042001F0AEFC304670BD04F0400018B1AF
:1012E0000026402001F0A5FC3046F5E770B500254A
:1012F0004FF4803404E0802001F090FC00B103E062
:101300002000A4F10104F6D100BF0CB9032070BD88
:1013100040F2FF5001F08DFC2846F8E72DE9F04738
:101320000027002400260025A046A1467620AE49CD
:1013300008750020086048608860C8600861084639
:1013400001F020FC032001F032FCA54810380068B1
:1013500040F48070A2491039086000BF12E00020FC
:101360009D49086048608860C8604FF480600861EB
:10137000084601F026FCFFF7B9FF044604B903E074
:10138000781CC7B24A2FEADB00BF14B12046BDE883
:10139000F0874FF4D57090490860082048604020DD
:1013A00088600020C8604FF480600861084601F042
:1013B00008FCFFF777FF044624B90120854908702F
:1013C0004FF0804900208449086037204860402061
:1013D00088600020C8604FF480600861084601F012
:1013E000F0FB3720FFF707FB0446002C4BD134E01D
:1013F000002079490860372048604020886000203C
:10140000C8604FF480600861084601F0DAFB3720BD
:10141000FFF7F1FA04460CB12046B8E7734849EAF1
:1014200000006D4908602920486040208860002045
:10143000C8604FF480600861084601F0C2FBFFF706
:1014400017FF04460CB12046A1E765480668012055
:1014500080EAD67080F001086D1CB8F1000F03D14E
:101460004FF6FF708542C3D34FF6FF70854202D31B
:101470001B2420468BE706F08040060032D0022075
:10148000544908702EE01CE0594853490860012077
:101490004860402088600020C8604FF48060086188
:1014A000084601F08EFBFFF7E3FE04460CB1204630
:1014B0006DE74B480668012080EAD67080F001088D
:1014C0006D1CB8F1000F03D14FF6FF708542DBD3DE
:1014D0004FF6FF70854202D31B24204657E70320B6
:1014E0003C490870204652E73EB500240025012102
:1014F000404801F067FC0121C80201F085FC012190
:10150000C80201F092FC4FF4F850019002208DF8CF
:1015100008008DF8090000208DF80A0001208DF8E0
:101520000B0001A9344801F0BFFA0420019001A981
:10153000324801F0B9FA0C2208212F4801F0FEFAD6
:101540000C2209212C4801F0F9FA0C220A212A4820
:1015500001F0F4FA0C220B21274801F0EFFA0C22DB
:101560001146254801F0EAFA0C220221234801F035
:10157000E5FA00214FF4006001F057FCFFF710FA84
:1015800031208DF8000001208DF801008DF8020057
:101590008DF80300684601F036FAFFF7BFFE0446F7
:1015A00014B9FFF7B4FD04461CB91548FFF7ACFBAE
:1015B000044634B91249B1F854100804FFF78FFB00
:1015C000044624B94FF40060FFF758FB0446E4B129
:1015D000004817E030000020B01400203400002044
:1015E000142C0140DC14002098140020000010800E
:1015F0000080FF800C00400000080240000C024008
:10160000001500200078032812D1FE4890F85600FB
:1016100020B1FC4890F85600012801D1022500E0D5
:1016200000252846FFF7DEF90020FFF7D1F9044630
:1016300020463EBD70B590B004460E46154600BF2C
:10164000F14801F07CFD0028FAD1EF4801F092FC4E
:101650004FF000600190ED48029003940495002043
:10166000059006904FF480600790800008908000FD
:10167000099000200A904FF440300B9004200C9009
:1016800003200D904FF400000E9080100F9001A9E0
:10169000DD4801F011FD2021DB4801F041FD012171
:1016A000D94801F032FD10B070BD0146002002E0C3
:1016B0004910421CD0B20129FAD170472DE9F84FE8
:1016C0008146174698460A9C4FF0000AD3464D467D
:1016D0004FF0FF36B9F1000F02D12620BDE8F88F98
:1016E0000020CA4954390860C9480078022805D149
:1016F0000402780A40EAC8574FEA68280020C54922
:1017000088604860401E0860012048610020C86071
:101710000861084601F06AFABC486C38006800F0BD
:10172000007008B10E20D9E7002C21DDB4F5006F60
:101730001EDC601E2040D8B92046FFF7B6FF00909F
:10174000B54804601020B4494860402088600020FB
:10175000C8604FF480600861084601F032FA10203A
:10176000FFF749F98246BAF1000F03D05046B5E7BA
:101770002620B3E700980001A64988600846446027
:101780004FF0FF300860012048610220C86000204F
:101790000861084601F02AFA9F48076011209E4917
:1017A0004860402088600020C8604FF48060086175
:1017B000084601F006FA1120FFF71DF98246BAF13A
:1017C000000F01D0504689E794480078002856D190
:1017D00017E04FF4004001F021FA70B14FF0000B18
:1017E00005E08A48006845F82B000BF1010BBBF1BE
:1017F000080FF6D320358A4E03E00EB904206DE7BA
:10180000761E82484C38006840F22A610840002861
:10181000DFD0082001F002FA20B1082001F009FA17
:1018200004205BE7022001F0F9F920B1022001F069
:1018300000FA022052E7202001F0F0F920B1202028
:1018400001F0F7F9062049E74FF4007001F0E6F9DE
:1018500028B14FF4007001F0ECF907203EE703E0F7
:101860006A48006828602D1D4FF4001001F0D6F979
:101870000028F5D140F2FF5001F0DBF939E067486C
:101880000078012835D10020664908706649087043
:10189000664908705D484438006840F22A310843C0
:1018A0005A494439086059485438006840F00800E3
:1018B000564954390860002221464846FFF7BAFECF
:1018C00000E0761E50485838006800F0006038B9D3
:1018D0005648007820B95348007808B9002EF0D156
:1018E0000EB90420FAE64F48007810B14D4890F840
:1018F00000A05046F2E62DE9FF5F17469846DDE965
:101900000E464FF00009CA464FF0FF35484900988F
:10191000086000203D49543908603D48007802289D
:1019200005D10402780A40EAC8574FEA6828002027
:10193000384988604860401E0860012048610020E6
:10194000C8600861084601F051F930486C380068F9
:1019500000F0007018B10E2004B0BDE8F09F002C1C
:1019600021DDB4F5006F1EDC601E2040D8B9204692
:10197000FFF79BFE834628480460102026494860F4
:10198000402088600020C8604FF4806008610846ED
:1019900001F017F91020FFF72EF88146B9F1000F7A
:1019A00003D04846D8E72620D6E7012E7ED906FB8D
:1019B00004F0B0F1007F01D32620CDE74FEA0B10F1
:1019C0001449886006FB04F048604FF0FF3008605F
:1019D000012048610220C86000200861084601F02B
:1019E00005F90D48076012200B49486040208860C7
:1019F0000020C8604FF480600861084601F0E1F8FB
:101A0000122017E00015002058640240802C01408D
:101A100030000020C4140020B01400203800002042
:101A2000FFFF7F003A000020390000203B0000202B
:101A30003C000020FEF7DFFF8146B9F1000F01D026
:101A4000484689E7FB48007800287CD11DE04FF428
:101A5000004001F0E3F8A0B14FF0000A07E0F648BB
:101A60000068F649096841F82A000AF1010ABAF14A
:101A7000080FF4D3F14800682030F0490860F04DB9
:101A800003E00DB9042067E76D1EEB484C38006891
:101A900040F22A3108400028D9D0082001F0BEF8D1
:101AA00028B1082001F0C5F8042055E79CE0022089
:101AB00001F0B4F820B1022001F0BBF802204BE79E
:101AC000202001F0ABF820B1202001F0B2F8062070
:101AD00042E74FF4007001F0A1F828B14FF4007014
:101AE00001F0A7F8072037E709E0D3480068D34999
:101AF00009680860D1480068001DD04908604FF4AB
:101B0000001001F08BF80028EFD14FF4807001F045
:101B100085F820B3CB48007838B1CA48007801284E
:101B200003D0C8480078022819D10020C6490860AF
:101B30000C204860402088600020C8604FF480601E
:101B40000861084600E011E001F03BF80C20FEF7C8
:101B500052FF8146B9F1000F01D04846FCE6FEF77E
:101B600020FB40F2FF5001F064F83DE0B1480078FE
:101B7000012839D10020B54908700120B449087006
:101B80000020B4490870AC484438006840F22A315B
:101B90000843A94944390860A7485438006840F010
:101BA0000800A5495439086006FB04F1002200989A
:101BB000FFF740FD00E06D1EA748006800F00060E0
:101BC00008B9002DF7D10DB90420C5E600BFA14822
:101BD000007818B99D4800780028F8D09B48007814
:101BE00010B19A4890F800904846B5E61CB50446F6
:101BF00000200190009099480088000492490860F4
:101C00000D204860402088600020C8604FF480604C
:101C10000861084600F0D5FF87484C3800680090FE
:101C200003E085484C3800680090009800F04500BB
:101C30000028F6D0012000F0F1FF20B1012000F0D3
:101C4000F8FF01201CBD042000F0E8FF20B10420B3
:101C500000F0EFFF0320F5E77748703800680D28A3
:101C600001D01020EEE740F2FF5000F0E2FF724892
:101C70006C38006801900198C0F343202070002068
:101C8000E0E72DE9FF5F86B017469846149D0026D1
:101C90000020059004900024814603908246029023
:101CA0000195DDF818B0DDF818B0BBF1000F03D1D5
:101CB00026200AB0BDE8F09F00205F495439086033
:101CC000674988604860401E086001204861002024
:101CD000C8600861084600F089FF57486C38006802
:101CE00000F0007008B10E20E3E7564800780228A3
:101CF00005D10502780A40EAC8574FEA6828002D46
:101D00001FDDB5F5006F1CDC681E2840C8B92846E9
:101D1000FFF7CBFC05904C48056010204A4948600D
:101D2000402088600020C8604FF480600861084649
:101D300000F047FF1020FEF75EFE06461EB130465B
:101D4000B7E72620B5E74548008800043E4908600B
:101D50000D204860402088600020C8604FF48060FB
:101D60000861084600F02DFF0D20FEF744FE0646F0
:101D70000EB130469DE730486C38006803904FF054
:101D8000FF341CE0641E3548008800042E490860BA
:101D90000D204860402088600020C8604FF48060BB
:101DA0000861084600F00DFF0D20FEF724FE0646F0
:101DB0000EB130467DE720486C38006803900398E8
:101DC00000F4807008B9002CDCD10CB9292070E730
:101DD0001D48076018201C4948604020886000208A
:101DE000C8604FF480600861084600F0EAFE1820E1
:101DF000FEF701FE06460EB130465AE700201449B0
:101E000008700598000116498860084645604FF043
:101E1000FF300860012048610020C8600861084662
:101E200000F0E4FE4FF0FF340248007800286ED145
:101E30005CE0000038000020802C01403C000020C5
:101E4000FFFF7F0030000020B01400203A00002087
:101E5000390000203B0000200064024034000020D4
:101E6000C41400204FF4804000F0D8FEC8B301989D
:101E7000A0EB0900202821D20198A0EB090000F076
:101E8000030020B90198A0EB0900800804E0019844
:101E9000A0EB09008008401C02904FF0000A09E006
:101EA000F849DBF8000008600AF1010A0BF1040BA5
:101EB00009F1040902988245F2D30FE04FF0000ABD
:101EC00005E05BF82A00EF4908600AF1010ABAF15F
:101ED000080FF6D30BF1200B09F120096FF04044F5
:101EE00004E0FFE70CB90420E3E6641EE5484C3843
:101EF000006840F21A6108400028B3D0082000F0C2
:101F00008DFE28B1082000F094FE0420D1E623E0E5
:101F1000022000F083FE20B1022000F08AFE0220A1
:101F2000C7E6102000F07AFE20B1102000F081FEFC
:101F30000520BEE64FF4007000F070FE28B14FF4AB
:101F4000007000F076FE0720B3E6FEF72AF940F2B3
:101F5000FF5000F06EFE43E0CB48007801283FD1EF
:101F60000020CA490870CA490870CA490870C548A3
:101F70004438006840F21A310843C24944390860C5
:101F8000402229460698FFF755FBBE4854380068A2
:101F900040F00800BB495439086000E0641EBE48A8
:101FA000006800F0006008B9002CF7D11CB9FFF7F9
:101FB0009BFA04207DE64FF0FF3400E0641EB54834
:101FC000007820B9B148007808B9002CF6D10CB9D6
:101FD00004206EE6AD48007810B1AC48007868E6A1
:101FE00040F2FF5000F025FE04A8FFF7FFFD064673
:101FF00003E004A8FFF7FAFD06463EB99DF810007D
:102000000728F6D09DF810000628F2D0304650E69A
:102010002DE9FF5F84B0DDE9124700260020039020
:102020000290002580468146019007FB04FBDDF805
:1020300010A0DDF810A0BAF1000F03D1262008B0DF
:10204000BDE8F09F00208F495439086093498860AB
:102050004860401E0860012048610020C860086197
:10206000084600F0C3FD87486C38006800F0007037
:1020700008B10E20E3E78A480078022808D104025C
:10208000DDE90601400A40EAC1504912CDE90601E6
:10209000002C1FDDB4F5006F1CDC601E2040C8B9A9
:1020A0002046FFF702FB03907E48046010207D4924
:1020B0004860402088600020C8604FF4806008615C
:1020C000084600F07EFD1020FEF795FC06461EB186
:1020D0003046B4E72620B2E7012F7CD907FB04F095
:1020E000B0F1007F01D32620A9E76D48007838B110
:1020F0006B480078012803D06948007802282DD168
:10210000694800880004674908603720486040201B
:1021100088600020C8604FF480600861084600F0C5
:1021200050FD3720FEF767FC06460EB1304686E7C5
:102130005C48076017205B494860402088600020A9
:10214000C8604FF480600861084600F03AFD17202F
:10215000FEF751FC06460EB1304670E7514906982D
:10216000086019204860402088600020C8604FF453
:1021700080600861084600F024FD1920FEF73BFC52
:1021800006460EB130465AE703980001434988607D
:1021900007FB04F048604FF0FF3008600120486101
:1021A0000020C8600861084600F020FD364800782D
:1021B000002866D1451E41E04FF4804000F02EFD1E
:1021C000B8B3ABEB0800202820D2ABEB080000F03E
:1021D000030028B900E0E8E0ABEB0800800803E06A
:1021E000ABEB08008008401C01904FF0000909E0AB
:1021F0002449DAF80000086009F101090AF1040A2B
:1022000008F1040801988145F2D30FE04FF000096E
:1022100005E05AF829001B49086009F10109B9F1E4
:10222000080FF6D30AF1200A08F120086FF04045A4
:1022300004E0FFE70DB9042001E76D1E11484C389A
:10224000006840F21A3108400028B5D0082000F09C
:10225000E5FC20B1082000F0ECFC0420EFE60220B1
:1022600000F0DCFC20B1022000F0E3FC0220E6E6F6
:10227000102000F0D3FCC8B1102000F0DAFC0520DB
:10228000DDE64BE0802C0140380000203A000020C1
:10229000390000203B00002000640240C4140020EC
:1022A00030000020B0140020340000204FF40070F3
:1022B00000F0B4FC28B14FF4007000F0BAFC072025
:1022C000BDE64FF4807000F0A9FC00B3DA48007856
:1022D00038B1D9480078012803D0D74800780228BF
:1022E00015D10020D54908600C2048604020886046
:1022F0000020C8604FF480600861084600F061FC6F
:102300000C20FEF778FB06460EB1304697E6FDF747
:1023100048FF40F2FF5000F08CFC46E0C8480078CF
:10232000012842D10020C74908700120C649087021
:102330000020C6490870C648006840F21A310843B8
:10234000C349086007FB04F140220498FFF772F9C3
:10235000BF481038006840F00800BD4910390860D7
:102360004FF0FF3500E06D1EBA48006800F00060D5
:1023700008B9002DF7D11DB9FFF7B6F804205EE6C5
:102380004FF0FF3500E06D1EB048007820B9AD4831
:10239000007808B9002DF6D10DB904204FE6A94800
:1023A000007810B1A748007849E640F2FF5000F0ED
:1023B00040FC02A8FFF71AFC064603E002A8FFF75C
:1023C00015FC06463EB99DF808000728F6D09DF892
:1023D00008000628F2D0304631E610B54FF4807080
:1023E00000F01CFC80B398480078012814D100202C
:1023F000924908600C204860402088600020C86036
:102400004FF480600861084600F0DBFB0C20FEF70B
:10241000F2FA8C49087002E000208A4908708C4862
:10242000001F006840F480708949091F0860081D7A
:1024300000684CF23A31884385490860012083499D
:1024400008708048007810BDFFE7022000F0E6FB2E
:1024500068B1022000F0EDFB7D4800684CF23A3193
:1024600088437B490860022076490870EBE7082022
:1024700000F0D4FB68B1082000F0DBFB7448006872
:102480004CF23A3188437249086004206D49087063
:10249000D9E7202000F0C2FB68B1202000F0C9FB82
:1024A0006B4800684CF23A3188436949086006205D
:1024B00064490870C7E7102000F0B0FB68B1102035
:1024C00000F0B7FB624800684CF23A31884360493B
:1024D000086005205B490870B5E74FF4007000F014
:1024E0009DFB70B14FF4007000F0A3FB58480068EA
:1024F0004CF23A3188435649086007205149087028
:10250000A1E700209FE710B5FFF767FF10BD2DE999
:10251000FE4F83460C469146002002900026254639
:102520002C46700240EAD5566D020BF00300F0B164
:102530004FF0000A18E04FF4007000904FEA4A2074
:10254000471946EBE0733A464348FFF7B7F8029065
:102550004FF400724049584604F04AFF0BF5007BE7
:102560000AF1010000F0FF0ACA45E4DB16E0B9F108
:10257000010F09D14FF400702A46334600905846A7
:10258000FFF79CF8029009E04FF400702A463346AA
:10259000CDE900095846FFF7AEF902900298BDE870
:1025A000FE8F2DE9FE4F81460C4692460020029098
:1025B000002625462C46700240EAD5566D0209F0E9
:1025C0000300F0B14FF0000B18E04FF400724946E1
:1025D000214804F00DFF4FF4007000904FEA4B20AB
:1025E000471946EBE0733A461B48FFF74AFB029057
:1025F00009F500790BF1010000F0FF0BD345E4DB96
:1026000016E0BAF1010F09D14FF400702A463346A3
:1026100000904846FFF735FB029009E04FF4007048
:102620002A463346CDE9000A4846FFF7F1FC0290FE
:102630000298BDE8FE8F000030000020B01400209A
:10264000380000203A000020390000203B00002024
:102650003C2C0140006402405815002030B58FB07A
:1026600005460C460121880500F0ACFB284600F029
:1026700081FC00BF284600F062FD0028FAD10094DA
:102680002148019021480290002003904FF480508F
:102690000490002005904FF4806006900020079081
:1026A00008904FF48070099000020A9000200B906F
:1026B00003200C9000200D900E9001221021144850
:1026C00000F077FD01220821114800F072FD6946F3
:1026D000284600F0F1FC0121284600F016FD0FB05D
:1026E00030BD10B50B490A4800F033FD58B1094917
:1026F000074800F04AFD4FF400610748FEF703F970
:1027000001200649087010BD04140140581700202C
:1027100028640240000C00105827002040000020D0
:10272000F8B504460D4617461E468DF800408DF854
:1027300001508DF802708DF803606946002000F0AA
:102740000EFFF8BDF8B504460D4617461E468DF837
:1027500002708DF801508DF800608DF803406946D5
:10276000002000F085FFF8BD3EB541F6FF74012161
:10277000080700F038FB012000F042FE002001F0C5
:1027800006F842F22551884231D0012000F076FA55
:1027900004E0601C84B20A2000F0F0F8412000F050
:1027A0004FFA0028F5D00CB901203EBD4FF48070DF
:1027B00000F0EAFA012000F002FB7F200190FF20E8
:1027C000029000200090684600F081FE4023002225
:1027D00037210F20FFF7A4FF062301220C2112202E
:1027E000FFF7B0FF42F22551002000F0C3FF0020A8
:1027F000DBE700007FB505460C460121084600F0E6
:10280000F2FA0295ADF804400020ADF80600ADF8EC
:102810000C0001A94FF0804000F0F6FC00204FF0C2
:10282000804148620121880700F0D9FD012211464C
:10283000900700F0BAFD00204FF08041486201216E
:10284000880700F0CCFD1C208DF8000003208DF8D7
:1028500001008DF8020001208DF80300684600F0A9
:10286000D2F87FBD10B50121880700F0A7FD01282F
:102870003AD11E4800F05FFCC0F580501C4908604A
:1028800008460068B0F5006F0FD80846008881B28E
:102890001848FEF738F81648008882B216491548DD
:1028A000FDF7E3FFFDF782FC14E011480068A0F596
:1028B00000600F4908600846008881B20D48FEF7A5
:1028C00022F80B48008882B20B490A48FDF7CDFF79
:1028D000FDF76CFC0121880700F081FD012107480C
:1028E00000F02AF900BFFEE710BD00002864024096
:1028F0002400002058270020B008002000040240D7
:1029000010B504466FF0040000F0B2F8E11704EBD4
:102910005171C1F3C701274A11701046007800EBCE
:102920004001C1EBC0104FF6FF7101EAC00022491F
:10293000088010BD0146204A12884A434FF0E02328
:102940005A6100229A611A46126942F001021A6124
:1029500000BF4FF0E022106900F001021AB100F44C
:102960008032002AF5D04FF0E022126922F00102F5
:102970004FF0E0231A6100229A61704770B5044657
:102980004FF4077094FBF0F0C6B24FF4077094FB5D
:10299000F0F100FB114085B205E04FF40770FFF73E
:1029A000C9FF701EC6B2002EF7D115B12846FFF739
:1029B000C1FF70BD420000204400002000BF054A56
:1029C000128802F04002002AF9D0C2B2014B1B1D4E
:1029D0001A807047001401400648804706480047A7
:1029E000FEE7FEE7FEE7FEE7FEE7FEE7FEE7FEE7BF
:1029F000FEE7FEE7090500088901000826490143B2
:102A0000264A1160704770B5002100230F22C47858
:102A10001CB3224C246804F4E064C4F5E064C4F3FD
:102A20000721C1F10404E3B20A4144789C40E1B2B9
:102A30008478144021430C07210E194C0578615508
:102A4000047804F01F050124AC4005786D11AD0039
:102A500005F1E025C5F8004109E0047804F01F0500
:102A60000124AC400F4D0678761145F8264070BD24
:102A7000042808D14FF0E021096941F004014FF02A
:102A8000E022116107E04FF0E021096921F0040123
:102A90004FF0E022116170470000FA050CED00E0F4
:102AA00000E400E080E100E0F0B50A4600210023E8
:102AB000002400BF3DE0012505FA01F3156805EA91
:102AC00003049C4234D105684F000326BE40B54341
:102AD000056015794E00B5400668354305601579E7
:102AE000012D02D01579022D16D185684F000326DD
:102AF000BE40B543856055794E00B5408668354384
:102B00008560456801268E40B543456045689679E5
:102B10008E40B6B235434560C5684F000326BE40BF
:102B2000B543C560D5794E00B540C6683543C5602C
:102B3000491C1029BFD3F0BD41837047F0B5002375
:102B400000244D07ED0E02FA05F3CE1000F120052A
:102B500055F826504E07F70E0F26BE40B543CF104E
:102B600000F1200646F82750CE1000F1200555F858
:102B7000265045EA0304CE1000F1200545F8264012
:102B8000F0BD000000212D4A116847F6FF62914315
:102B9000027D83681A4343681A43C3681A43036873
:102BA0001A4303691A431143244A116070472349A9
:102BB000091F086070472148001F006800F00300EB
:102BC000704700211D4B1B1D02681A601A1D1168F9
:102BD0006FF30A01D0E901231A43C3681A4303695A
:102BE0001A431143154A0832116070470021134BF4
:102BF000203302681A601B1D42681A601A1D116892
:102C000021F0F701D0E902231A4303691A4343690B
:102C10001A431143094A28321160704701460020C7
:102C2000064A303212680A400AB1012000E0002052
:102C3000704702493431086070470000042C01409D
:102C400010B501460022002300204A11012A02D1BA
:102C50007E4C236808E0022A03D17C4C7034236840
:102C600002E07A4C7434236801F01F02012494407E
:102C70001C400CB1012000E0002010BD0021734A6F
:102C8000703211701170012802D004280AD104E0BA
:102C900001216E4A7032117005E005216B4A7032D5
:102CA000117000E000BF00BF7047F0B500210022A6
:102CB0000024022500260223644F08373F6807F0EE
:102CC0000C0121B1042905D0082937D105E0604F56
:102CD000076036E05F4F076033E05C4F3F1D3F68A1
:102CE000C7F38056594F3F1D3F6807F03F036EB151
:102CF000584FB7FBF3F7DFF854C10CF1040CDCF8C4
:102D000000C0CCF3881C07FB0CF40CE0504FB7FB61
:102D1000F3F7DFF838C10CF1040CDCF800C0CCF399
:102D2000881C07FB0CF4494F3F1D3F68C7F3014760
:102D30007F1C7D00B4FBF5F7076002E0444F07609D
:102D400000BF00BF414F08373F6807F0F001090995
:102D5000414F7A5C0768D74047603C4F08373F686F
:102D600007F4E051890A3C4F7A5C4768D740876096
:102D7000364F08373F6807F46041490B364F7A5C9D
:102D80004768D740C760F0BD002100F44072B2F53B
:102D9000407F0AD12D4A0832116821F4F8112F4AD8
:102DA00002401143294A08321160284A70321268E1
:102DB000C0F30B031A43254B70331A607047284940
:102DC0000860704739B1214A3032126802431F4B04
:102DD00030331A6006E01D4A3032126882431B4BC2
:102DE00030331A60704739B1184A403212680243D2
:102DF000164B40331A6006E0144A40321268824390
:102E0000124B40331A60704739B1104A443212688D
:102E100002430E4B44331A6006E00C4A44321268F7
:102E200082430A4B44331A60704739B1074A24324F
:102E300012680243054B24331A6006E0034A243229
:102E400012688243014B24331A60704700380240F5
:102E50000024F40000127A0054000020FFFCFF0F51
:102E60003C0E47422DE9FF4705460E460024A14689
:102E700000BFA046B08900B100BF2C8A24F44054A2
:102E8000F08804432C82AC8941F20C608443B08802
:102E900031890843718908430443AC81AC8A24F426
:102EA0004074B0890443AC826846FFF7FEFE2F48A9
:102EB000854202D02E48854202D1DDF80C9001E017
:102EC000DDF80890A88900F4004040B109EBC90082
:102ED00000EB091031684900B0FBF1F707E009EB9E
:102EE000C90000EB091031688900B0FBF1F76420DC
:102EF000B7FBF0F004012009642101FB1078A889D8
:102F000000F4004040B1322000EBC800B0FBF1F00B
:102F100000F00700044308E0322000EB08106421B1
:102F2000B0FBF1F000F00F0004432C81BDE8FF87F7
:102F300021B1828942F40052828104E082894DF6F7
:102F4000FF731A40828170471AB1838A0B438382D0
:102F500002E0838A8B438382704701F40072B2F5EA
:102F6000007F00D100BFCA430280704700100140BB
:102F700000140140016821F001010160002101609D
:102F800041608160C16001612121416197498842AE
:102F900004D13D21954A103A91608CE09349183153
:102FA000884205D14FF47461904A103A916082E0F2
:102FB0008E493031884205D14FF474118B4A103A52
:102FC000916078E089494831884205D14FF07461B9
:102FD000864A103A91606EE084496031884204D19B
:102FE0008349824A103AD16065E08049783188424D
:102FF00004D180497D4A103AD1605CE07B49903130
:10300000884204D17C49794A103AD16053E077492B
:10301000A831884205D14FF03D51744A103AD16031
:1030200049E07649884204D13D21744A083A11604A
:1030300041E072491831884205D14FF474616F4AFA
:10304000083A116037E06D493031884205D14FF4BC
:1030500074116A4A083A11602DE068494831884283
:1030600005D14FF07461654A083A116023E0634965
:103070006031884204D15E49604A121F11601AE033
:103080005E497831884204D15A495C4A121F116066
:1030900011E05A499031884204D15749574A121FCA
:1030A000116008E05549A831884204D14FF03D51E4
:1030B000524A121F1160704710B500220268504B2F
:1030C0001A40CC680B6823434C6923438C69234323
:1030D000CC6923430C6A23434C6A23438C6A234301
:1030E0004C6B23438C6B23431A430260426922F0EA
:1030F0000702D1E90B3423431A4342610B69436051
:103100004B6883608B68C36010BD21B1026842F0D8
:103110000102026003E0026822F0010202607047CF
:1031200021B1026842F02002026003E0026822F04E
:103130002002026070470146486880B2704701462D
:1031400000200A6802F001020AB1012000E000201C
:10315000704730B503460A4600200024274DAB4295
:1031600002D22249103901E02449103902F00055F9
:103170000DB14C6800E00C68224D2C4004EA0205B9
:103180000DB1012000E0002030BD02461B4B9A42E9
:1031900002D21648103801E01848103801F00053E8
:1031A0001BB1184B0B40C36002E0164B0B40836011
:1031B000704710B501F080034BB122B1436943F071
:1031C0008003436103E0436923F080034361802966
:1031D0000BD02AB1036801F01E042343036004E00E
:1031E000036801F01E04A343036010BD1060024099
:1031F0003D000020400F002000003D2010640240F0
:103200003F801CF07D0F7D0F00220288754B984295
:103210000ED0754B98420BD0B0F1804F08D0734B55
:10322000984205D0724B984202D0724B984204D11A
:103230004FF68F731A404B881A436F4B984207D052
:103240006E4B984204D04FF6FF431A400B891A4345
:1032500002804B68C3620B880385624B984202D0A0
:10326000614B984201D18B7A038601238382704798
:1032700021B1028842F00102028004E002884FF688
:10328000FE731A4002807047F0B50C4615460021C7
:1032900000220026078C4EF6FF7C07EA0C07078405
:1032A000818B028C4FF6FF7707EA043640F6FF4722
:1032B00039404FF6FF7707EA052739434FF6FF7786
:1032C00007EA0337394345F6FF773A4046F480571B
:1032D0003A4381830284F0BDF0B50C4615460021C7
:1032E00000220026078C4FF6FF6C07EA0C070784C4
:1032F000818B028C4FF6FF7707EA04264FF60C7796
:1033000039404FF6FF7707EA03172F4339434FF24F
:10331000FF573A4046F480773A4381830284F0BDF8
:10332000F0B50C461546002100220026078C4FF60A
:10333000EF7C07EA0C070784018B028C4FF6FF77BE
:1033400007EA041640F6FF4739404FF6FF7707EAD1
:10335000033739434FF6FF7707EA052739434FF61E
:103360005F773A4046F010073A4301830284F0BD8C
:10337000F0B50C46154600210022068C4FF6FE776C
:103380003E400684018B028C4FF60C7631407E1C49
:1033900006EA03162E4331434FF6F576324044F0E9
:1033A0000106324301830284F0BD1AB183890B43C5
:1033B000838102E083898B438381704730B5024665
:1033C000002000230024158A05EA0103958905EAF7
:1033D000010413B10CB1012000E0002030BDCA434C
:1033E00002827047000001400004014000040040D8
:1033F00000080040000C0040001000400014004095
:10340000014908627047000000000E4208B5002222
:10341000009200200021CA22E44B1A6053221A6055
:10342000E24A183A126822F0A002E04B183B1A60F8
:1034300000BFDE4A183A126802F02001009A521CBE
:103440000092009AB2F5003F01D00029F1D0D74A8E
:10345000183A126802F020020AB1012000E00020B0
:10346000FF22D24B1A6008BD08B50022009200204E
:103470000021CE4A183A126802F04002E2B9421E18
:10348000CA4B183B1A6000BFC84A183A126802F0CB
:103490004001009A521C0092009AB2F5803F01D080
:1034A0000029F1D0C14A183A126802F040020AB16C
:1034B000012002E0002000E0012008BDBB481838D0
:1034C000006820F08000B94918390860704730B5AD
:1034D00004460025CA20B549086053200860FFF75C
:1034E000C3FF00B91DE0B1481C38006820F040005F
:1034F000AE491C3908600846006821680843AB499A
:103500001C390860A9491439A06808600846006899
:10351000A18840EA0140A54914390860FFF7CEFFB1
:103520000125FF20A1490860284630BD0146002240
:1035300004E0501CC2B2A1F10A00C1B20A29F8DAB3
:10354000100741EA10607047014600BF080900EB10
:103550008000420001F00F001044C0B270472DE916
:10356000F04105460C460026002755B98F481C3807
:10357000006800F0400000B102E00020E07000BFF1
:103580000EE08A481C38006800F0400020B1207826
:10359000FFF7DAFF064602E00020E07000BF00BF40
:1035A00055B120780004617840EA0120A1780843F1
:1035B000E17840EA014611E02078FFF7B7FF4FEAD3
:1035C00000486078FFF7B2FF48EA0028A078FFF7CC
:1035D000ADFF48EA0008E07848EA0046CA2073498F
:1035E000086053200860FFF73FFF08B9002714E088
:1035F0006F4830406D4924390860FFF75FFF6B4822
:103600001C38006800F0200030B9FFF7FFFE08B951
:10361000002702E0012700E00127FF20634908603E
:103620003846BDE8F08170B506460C4600255F4877
:10363000243800685E4900EA0105C5F305402070A2
:10364000C5F30620607005F07F00A07005F48000CF
:10365000000CE0705EB92078FFF776FF207060788C
:10366000FFF772FF6070A078FFF76EFFA07070BD6B
:103670002DE9F04105460C46002600274DB960783B
:1036800000F01000102804D1607820F010000A30FB
:10369000607005B908E06078FFF756FF0646A0782D
:1036A000FFF752FF064600BF55B1E078000461788D
:1036B00040EA0120A1780843217840EA413611E030
:1036C000E078FFF733FF4FEA00486078FFF72EFFFE
:1036D00048EA0028A078FFF729FF48EA0008207888
:1036E00048EA4036CA203149086053200860FFF795
:1036F000BBFE08B9002714E02E4830402B49203982
:103700000860FFF7DBFE29481C38006800F0200045
:1037100030B9FFF77BFE08B9002702E0012700E07F
:103720000127FF20214908603846BDE8F08170B5C7
:1037300006460C4600251D48203800681D4900EA51
:103740000105280CE070C5F30420607005F03F000F
:10375000A070C5F3423020705EB9E078FFF7F4FE48
:10376000E0706078FFF7F0FE6070A078FFF7ECFE85
:10377000A07070BD08B5002200920C4A2C32009255
:10378000009A02EB80020092009A116008BD08B511
:1037900001460020009005482C300090009800EB76
:1037A000810000900098006808BD000024280040B7
:1037B0007F7F7F003FFFFF0030B5034601E003F845
:1037C000011B1400A2F10102F9D130BD10B504466D
:1037D000684951F824104A00674951F82400002133
:1037E000FFF7EAFF654951F8242063490C3951F885
:1037F00024000021FFF7E0FF01215F480C30015554
:1038000010BD10B501460023002207E05A4850F8C9
:10381000210030F8120000B15B1C521C554850F8D2
:1038200021009042F2D864205843524C54F8214071
:10383000B0FBF4F0C0B210BD2DE9F04704460F46CE
:103840000025A9464C480C30005D20B94A48143880
:103850000168204688471FB94FF0FF30BDE8F08768
:10386000474850F82400B7FBF0F6454850F82400CC
:10387000B7FBF0F100FB117000B1761C3D4850F829
:103880002400451E20E03C4850F8240030F8150084
:1038900010B909F1010901E04FF00009B14512D159
:1038A0004FF0000808E0344850F8240005EB080207
:1038B00020F8126008F10108B045F4D3304850F800
:1038C00024006843CAE76D1E002DDCDA4FF0FF309C
:1038D000C4E72DE9F04104460E4627480C30005D50
:1038E00038B9254814380168204688470120BDE8CA
:1038F000F081224850F82400B04217D9204850F8EF
:103900002400B6FBF0F11C4850F8240030F81120D8
:10391000002507E00023184850F824004F1920F82C
:1039200017306D1C9542F5DB0020E0E70220DEE752
:1039300070B505460C4604B970BD0F480C3850F8F8
:103940002500261A31462846FFF7C3FF00BFF3E7DC
:1039500070B504460E4631462046FFF76DFF05461A
:10396000681C08B9002070BD03480C3850F82400CA
:103970002844F8E70079000878000020187900084A
:103980000C79000870B50446002514B1012C05D14E
:1039900003E0FDF7A9FD054602E001E0012500BFB7
:1039A00000BF0DB1012070BD0020FCE701460020E2
:1039B00070472DE9F04105460E4617461C464FF06C
:1039C000000814B90420BDE8F08115B1012D13D110
:1039D00013E0E2B239463046FEF799FD804607E033
:1039E000FDF782FDE2B239463046FEF790FD804693
:1039F000B8F1000FF4D103E000BF4FF0010800BFA1
:103A000000BFB8F1000F01D10020DCE70120DAE7A8
:103A10002DE9F04105460E4617461C464FF00008BA
:103A200014B90420BDE8F08115B1012D14D112E0C4
:103A3000E2B239463046FEF7B4FD804607E0FDF7B6
:103A400053FDE2B239463046FEF7ABFD8046B8F191
:103A5000000FF4D103E002E04FF0010800BF00BF07
:103A6000B8F1000F01D10020DCE70120DAE72DE9F1
:103A7000F04706468946154646BBB9F1000F09D006
:103A8000B9F1010F13D0B9F1020F05D0B9F1030F4D
:103A900019D106E0002418E04FF4007028600024DB
:103AA00013E01548B0F85000288000240DE01248BB
:103AB0004FF400720023D0E91271384603F067FC1E
:103AC0002860002401E0042400BF02E0012E00D0A1
:103AD00001242046BDE8F0870020704710B5044659
:103AE00021460020FFF734FF10BD10B504462146E3
:103AF0000020FFF71DFF10BD00150020014648788B
:103B00000A7842EA002070470146C8788A7842EA7B
:103B100000204A7842EA00200A7842EA00207047F2
:103B200070B50246D3790024250245EA13649079E2
:103B300040EA0323250245EA1364507940EA03234F
:103B4000250245EA1364107940EA0323250245EA79
:103B50001364D07840EA0323200240EA136491788A
:103B600041EA0323210241EA1364507840EA032327
:103B7000250245EA1364117841EA032318462146D9
:103B800070BD00F8011B091200F8011B704700F816
:103B9000011B090A00F8011B090A00F8011B090AA8
:103BA00000F8011B704730B500F8012B110A41EAFB
:103BB00003621B0A00F8012B110A41EA03621B0A87
:103BC00000F8012B110A41EA03621B0A00F8012BDD
:103BD000110A41EA03621B0A00F8012B110A41EAAB
:103BE00003621B0A00F8012B110A41EA03621B0A57
:103BF00000F8012B110A41EA03621B0A00F8012BAD
:103C000030BD30B503460C463AB100BF14F8015B35
:103C100003F8015B551E2A00F8D130BD10B50346EC
:103C200000BF03F8011B541E2200FAD110BDF0B5ED
:103C300003461D460C46002000BF15F8017B14F812
:103C400001CBA7EB0C00561E320001D00028F4D0A7
:103C5000F0BD024600E0521C107810B11078884286
:103C6000F9D1107870470146F948007888420FDC96
:103C7000F7484078884201DB01207047F44880789B
:103C8000884205DCF248C078884201DB0120F4E775
:103C90000020F2E70146EE480079884219DCEC4842
:103CA0004079884201DB01207047E94880798842E9
:103CB00005DCE748C079884201DB0120F4E7E448ED
:103CC000007A884205DCE248407A884201DB012024
:103CD000EAE70020E8E72DE9F0410646356815F8E7
:103CE000014B2046FFF7BFFF60B115F8017B384656
:103CF000FFF7D0FF18B94FF0FF30BDE8F08107EBB8
:103D0000042084B24CB14FF46A71204603F0D9FA12
:103D1000044614B94FF0FF30EFE7A0463560404647
:103D2000EBE72DE9F04107460C4616464FF46A7161
:103D3000384603F08FFA0546FF2D0BDD022E02D226
:103D40000020BDE8F081281204F8010B04F8015BA3
:103D50000220F6E705B10EB90020F2E704F8015B96
:103D60000120EEE770B504460025E078E8B1607800
:103D7000012304F13C01A26BFFF74AFEA0B9002029
:103D8000E070E16AA06B401A616A88420DD2A078A7
:103D900002280AD1636AA16BCA186078012304F172
:103DA0003C01FFF735FE00E00125284670BD70B5E7
:103DB00004460D460026A06BA84210D02046FFF70F
:103DC000D1FF06465EB9607801232A4604F13C0122
:103DD000FFF7EFFD10B14FF0FF350126A563304628
:103DE00070BD70B504462046FFF7BCFF0546002DA8
:103DF00038D1207803282ED1207901282BD14202F6
:103E0000002104F13C00FFF709FF4AF6552104F2B6
:103E10003A20FFF7B6FE8F4904F13C00FFF7B7FEEA
:103E20008D4904F50870FFF7B2FE04F50970E169E9
:103E3000FFF7ADFE04F50A70A169FFF7A8FEA06ABE
:103E4000401CA0636078012304F13C01A26BFFF7E2
:103E5000DFFD00202071607800221146FFF707FE89
:103E600000B10125284670BD0246891E106A801ED9
:103E7000884201D8002070475389506B03FB010032
:103E8000F9E72DE9FC5F06460C463568022C02D3A3
:103E9000286AA04202D84FF00109B2E04FF0FF3982
:103EA0002878012806D0022830D0032841D00428E1
:103EB00078D152E0274607EB5707E86A00EB572115
:103EC0002846FFF774FF00B19AE038467F1CC0F324
:103ED000080105F13C0010F80180E86A00EB572169
:103EE0002846FFF764FF00B18AE0C7F3080105F137
:103EF0003C00405C48EA002804F0010010B14FEAA1
:103F0000181001E0C8F30B00814679E0E86A00EB85
:103F100014212846FFF74BFF00B171E040F2FF117A
:103F200001EA440205F13C015018FFF7E7FD814624
:103F300066E0E86A00EBD4112846FFF738FF00B1CD
:103F40005EE040F2FF1101EA840205F13C015018E5
:103F5000FFF7DAFD20F0704952E00022D6E90410A4
:103F600051405040014347D0B068A4EB000AD6E965
:103F70000420521E60F10000CDE900204FF40072D1
:103F80000023DDE9000103F0D1F96989B0FBF1FB01
:103F9000F07902280AD1DA4508D8DA4503D16FF062
:103FA000004001E029E0601C814629E0F079032807
:103FB00005D1B069504502D904F1010920E0F0793A
:103FC000022818D0F06910B16FF0004912E0E86AD9
:103FD00000EBD4112846FFF7EAFE00B110E040F2F2
:103FE000FF1101EA840205F13C015018FFF78CFD36
:103FF00020F0004904E000BF00BF4FF0010900BFFE
:1040000000BF4846BDE8FC9F2DE9F04704460D4639
:1040100016464FF00209022D71D3206AA8426ED9CC
:104020002078012806D0022851D0032869D004281E
:104030000DD167E02F4607EB5707E06A00EB5721E9
:104040002046FFF7B4FE8146B9F1000F06D080E0AC
:1040500031790008525261417272416138467F1CC9
:10406000C0F3080104F13C0001EB000805F0010079
:1040700028B1F1B298F8000061F31F1000E030465B
:1040800088F800000120E070E06A00EB572120462C
:10409000FFF78DFE8146B9F1000F00D059E0C7F35C
:1040A000080104F13C0001EB000805F0010010B12B
:1040B000C6F3071006E098F8000000F0F000C6F321
:1040C0000321084388F800000120E07041E0E06A25
:1040D00000EB15212046FFF76AFE8146B9F1000F7B
:1040E00000D036E0B1B240F2FF1202EA450304F11B
:1040F0003C029818FFF745FD0120E07029E029E017
:10410000FFE700BFE06A00EBD5112046FFF74FFE46
:104110008146B9F1000F00D01BE0207804280BD0B5
:1041200040F2FF1101EA850204F13C015018FFF74B
:10413000EBFC66F31B00064640F2FF1101EA850224
:1041400004F13C0150183146FFF721FD0120E070D9
:1041500000BF00BF4846BDE8F0872DE9F74F054690
:104160000E46B61E286A801EB04200D8002634468D
:10417000A2464FF0000B00BF686B00EB14312846DD
:10418000FFF715FE18B14FF0FF30BDE8FE8FC4F306
:10419000C80904F0070101208840C7B200BF00BF72
:1041A00005F13C0010F8090000EA07087806070E40
:1041B000601C0446296A891E884203D30024002714
:1041C0004FF40079B8F1000F08D10BF101008346DC
:1041D0000299884205D10AF10200D6E7A2464FF0C3
:1041E000000BB44201D10020CFE7002FD8D1012726
:1041F00009F101008146B0F5007FD0D3BCE72DE97D
:10420000F04704460D4690469946AD1E606B00EBA4
:10421000153AC5F3C80605F0070101208840C7B26A
:1042200000BF51460AF1010A2046FFF7C0FD10B158
:104230000120BDE8F08700BF00BF04F13C00805DB5
:10424000384008B1012000E00020484501D102209B
:10425000EFE704F13C00805D784004F13C018855B3
:104260000120E070A8F101005FEA000800D1E0E75A
:104270007806000E0700E0D10127701C0646B0F555
:10428000007FD9D30026CCE72DE9F0410446E07940
:10429000032812D1A568A7690BE06A1C294620688B
:1042A000FFF7B2FE064616B13046BDE8F0816D1C40
:1042B0007F1E002FF1D10020E0710020F5E72DE9ED
:1042C000F04104460D46174616E0E369012B03D979
:1042D000E369EB1A9B1C00E03B461A46E369EB1AC4
:1042E000591C2068FFF790FE064616B13046BDE81F
:1042F000F081E069401EE061E0690028E5D100BF7F
:10430000F5E72DE9F05F06460F4690464FF00009AD
:104310003568BA46BB46022F02D3286AB84202D893
:104320000220BDE8F09FB8F1000F11D028780428D2
:1043300002D1F07902280BD04FF0FF3241462846D7
:10434000FFF762FE8146B9F1000F01D04846E8E769
:1043500000BF39463046FFF794FD044604B93EE0FD
:10436000012C01D10220DCE7601C08B90120D8E74C
:10437000287804280AD0002239462846FFF744FE50
:104380008146B9F1000F01D04846CAE7D5E90710C8
:10439000801E814206D2E869401CE861287940F01D
:1043A000010028710BF10100A04201D1A34612E0E7
:1043B000287804280DD1ABEB0A00421C002351469B
:1043C0002846FFF71CFF8146B9F1000F01D048468F
:1043D000A7E7A346A2462746286AB842B9D800BF35
:1043E0002878042830D1B8F1000F02D10020F071F4
:1043F0002AE0F079D8B9B76811E039463046FFF7BE
:1044000040FD0446022C01D202208AE7601C08B954
:10441000012086E7781C844200D002E07F1C4745DB
:10442000EBD100BF47450FD10220F0710CE0F079CD
:10443000032809D1B068404506D8B169B06808447E
:10444000404501D30220F07100206AE72DE9F047D2
:1044500006468A463468BAF1000F0AD1D4F81880AB
:10446000B8F1000F02D0206A404516D84FF001087D
:1044700013E051463046FFF704FD0746022F02D2F3
:104480000120BDE8F087781C08B93846F9E7206AB2
:10449000B84201D93846F4E7D046E06908B90020AF
:1044A000EFE7207804284ED1012241462046FFF74D
:1044B00054FE05460DB1681C08B92846E1E7012302
:1044C0001A4629462046FFF79AFE8146B9F1020FA7
:1044D00001D10120D5E7B9F1010F02D14FF0FF3032
:1044E000CFE7BAF1000F02D10220F0710CE0F079B1
:1044F000022809D108F10100854205D0B068A8EB77
:104500000000B0610320F071F079022869D00AF14F
:104510000100854207D1F06910B1F069401C00E04C
:104520000220F0615DE0F06908B90120F0612A46DF
:1045300051463046FFF7C3FE8146B9F1000F50D116
:104540000120F0614DE00025D04519D108F10105A9
:10455000206AA84200D8022529463046FFF791FC80
:104560000746012F01D0781C08B9384689E73FB1CA
:10457000A769022F03D3206AB84200D9B8460025A4
:10458000E5B9454600BF6D1C206AA84204D8022543
:10459000454501D9002074E729463046FFF771FCF4
:1045A000074607B909E0012F01D0781C08B9384641
:1045B00067E74545E7D1002063E700BF4FF0FF32D2
:1045C00029462046FFF720FD8146B9F1000F08D1AA
:1045D000BAF1000F05D02A4651462046FFF714FDD8
:1045E0008146B9F1000F0DD1A561D4E90710801EF5
:1045F000814202D8E069401EE061207940F001006C
:10460000207107E0B9F1010F02D14FF0FF3000E057
:1046100001200546284634E72DE9F84F8246154625
:104620001E46DAF800000090DAF8500000F10409A4
:104630004FF4007200232846314602F077FE074609
:104640000098B0F80AC062460023384602F06EFEB9
:10465000834600BF59F8044B14B90020BDE8F88F19
:10466000A34500D204E0ABEB040B09F10409F1E728
:1046700000BFD9F800005844F0E72DE9F0470446A0
:1046800089462046FFF76EFB10B10120BDE8F08798
:1046900049462046FFF7E8FB0746A7634FF4007240
:1046A000002104F13C00FFF7B9FA60894FF40041A2
:1046B000B1EB402F01D8084601E060894002064670
:1046C00000E07608B6F5007F05D93046FFF706FA18
:1046D0005FEA0008F5D0B6F5007F17D93246002111
:1046E0004046FFF79BFA760A002500E035446089D2
:1046F000A84207D97A19607833464146FFF788F90E
:104700000028F3D04046FFF7F0F910E004F13C0830
:104710000126002500E035446089A84207D97A19AE
:10472000607833464146FFF773F90028F3D060897B
:10473000A84201D00120A9E70020A7E72DE9F04118
:1047400004460D4626683078042801D1800601E031
:104750004FF40010A84202D905F01F0010B102204A
:10476000BDE8F0812563A7682FB93078032802DB04
:10477000376B0020E07147B93089B0EB551F01D885
:104780000220EDE7306BA0631CE070894FEA4028FF
:1047900011E039462046FFF774FB0746781C08B93C
:1047A0000120DDE7022F02D3306AB84201D802208F
:1047B000D6E7A5EB08054545EBD239463046FFF76D
:1047C00053FBA0636763A06B08B90220C8E7A06B26
:1047D00000EB5520A063C5F3080106F13C00084436
:1047E000E0630020BCE72DE9F041044688462768D5
:1047F000206B00F12006A06B40B13878042801D16D
:10480000800601E04FF40010B04202D80420BDE859
:10481000F081C6F3080000284AD1A06B401CA063B9
:10482000606B38B93889B0EB561F41D80020A063BF
:104830000420ECE77889401E00EA5620002837D192
:104840002046616BFFF71DFB0546012D01D80220B4
:10485000DDE7681C08B90120D9E7386AA84221D8E9
:10486000B8F1000F03D10020A0630420CFE7204659
:10487000616BFFF7EBFD05460DB90720C7E7012D7A
:1048800001D10220C3E7681C08B90120BFE729460F
:104890003846FFF7F2FE08B10120B8E7E07940F0B2
:1048A0000400E071656329463846FFF7DDFAA0632E
:1048B0002663C6F3080107F13C000844E0630020CA
:1048C000A5E72DE9F04104460E46D4F8008000210A
:1048D0002046FFF733FF05465DBB002700BF40467B
:1048E000A16BFFF764FA054605B121E098F80000D6
:1048F000042805D1E06B0078012121EAD01009E0FD
:10490000E06B0078E52802D0E06B007808B9012060
:1049100000E0002020B1781C0746B04201D107E03A
:10492000002701212046FFF75EFF0546002DD6D067
:1049300000BF042D00D107252846BDE8F08170B5E1
:1049400005460C4604F11A00FFF7D8F80646287809
:10495000032805D104F11400FFF7D0F846EA004619
:10496000304670BD70B506460C461546A9B204F136
:104970001A00FFF706F93078032804D1290C04F156
:104980001400FFF7FEF870BD2DE9F04780460C4695
:1049900004F11A00FFF7B2F810B10020BDE8F0876B
:1049A000207800F03F00401E00EB800101EBC005C5
:1049B0004FF00109002621E0F949895D0819FFF748
:1049C0009DF80746B9F1000F11D0FF2D0BD23846E4
:1049D00002F024FC824629466D1C38F8110002F0D2
:1049E0001DFC824501D00020D8E7B94605E04FF60E
:1049F000FF70874201D00020D0E7761C0D2EDBD35C
:104A0000207800F0400038B1B9F1000F04D038F838
:104A1000150008B10020C1E70120BFE72DE9F047EC
:104A200080460C4604F11A00FFF768F810B1002028
:104A3000BDE8F087207820F04000401E00EB8001A8
:104A400001EBC0054FF00109002619E0D449895D4A
:104A50000819FFF753F80746B9F1000F09D0FF2DE9
:104A600001D30020E4E7B94628466D1C28F81070F1
:104A700005E04FF6FF70874201D00020D8E7761C92
:104A80000D2EE3D3207800F0400030B1FF2D01D38C
:104A90000020CDE7002028F815000120C8E72DE907
:104AA000F04707460C461546984684F80D800F20BF
:104AB000E07200202073002104F11A00FFF761F872
:104AC000681E00EB800101EBC0090020064682460B
:104AD00000BF4FF6FF70864204D0484609F1010935
:104AE00037F81060AE4911F80A1008193146FFF77F
:104AF00048F80EB94FF6FF760AF1010082460D28FC
:104B0000E7D34FF6FF70864202D037F8190008B994
:104B100045F040052570BDE8F0872DE9FF4F83B0D3
:104B2000804691461E460B2240460499FFF769F8DD
:104B3000052E18D9374611E039F802BB00250BE0E5
:104B4000584667F35F0007464FEA6B0B07F4803067
:104B500008B1944847406D1C102DF1D3B9F80000FE
:104B60000028E9D13E46072500BF06F00F0000F1FE
:104B7000300ABAF1390F03DD0AF1070000F0FF0A2D
:104B800028466D1E01A901F800A03609002EECD1BF
:104B90007E20485500240AE018F80400FFF763F867
:104BA00020B1681EA04200D107E0641C641CAC4226
:104BB00003D218F804002028EED100BF00BF082D52
:104BC00004D228466D1C01A9085C00E02020214683
:104BD000641C08F80100082CF1D307B0BDE8F08F81
:104BE00030B5014600200B2200BF431003EBC01478
:104BF00011F8015B6319D8B2531E1A00F5D130BD0C
:104C000030B502465478641C6301002420462146D6
:104C100010E0022901D1491C0BE000F0010414B19D
:104C20004FF4004400E0002404EB6004555C2C4485
:104C3000A0B2491C9942ECD330BD70B506460024A1
:104C40001BE0284602F0EAFA85B204F0010010B138
:104C50004FF4004000E0002000EB6400E9B208449B
:104C600084B204F0010010B14FF4004000E00020D5
:104C700000EB640000EB252084B236F8021B0D0027
:104C8000DFD1204670BD024601F0010010B14FF0A7
:104C9000004000E0002000EB5100811808467047FA
:104CA0002DE9F04705460C464FF040080020074626
:104CB000814682462EE0B8F5187F01D300272DE00B
:104CC00008F01F0008B908F1020805EB0800FEF71C
:104CD00015FF064608F102080AF1010AB9F1000FB2
:104CE00007D1B6F5584F04DBB6F5604F01DAB1468F
:104CF00010E0C7F1FF0204F11A03D91946EA09408E
:104D0000FFF70FF806460EB9002707E037444FF0CB
:104D1000000900BF95F823005045CCD800BFB9F179
:104D2000000F00D000272FB93F2238467F1C04F126
:104D30001A010A54002104F11A00C15500206073C1
:104D400028792073207B00F0100010B1002001466C
:104D500003E005F13800FEF7E3FEC4E9000105F1C8
:104D60000C00FEF7CBFE608105F10E00FEF7C6FEDB
:104D70002081BDE8F0872DE9F047044620684669A8
:104D8000A16B2068FFF713F8054615B12846BDE86A
:104D9000F087E06B0078852806D00220F7E7000056
:104DA000247900082110010020223046E16BFEF733
:104DB00028FF7078401C4FEA4018B8F1600F02D30A
:104DC000B8F5187F01D90220E1E700212046FFF75E
:104DD0000AFD0546042D00D102250DB12846D6E76F
:104DE000A16B2068FEF7E3FF05460DB12846CEE72C
:104DF000E06B0078C02801D00220C8E7202206F12D
:104E00002000E16BFEF7FDFE96F823002C300F2109
:104E1000B0FBF1F0B8EB401F01D20220B7E740270A
:104E200000BF00212046FFF7DEFC0546042D00D11F
:104E300002250DB12846AAE7A16B2068FEF7B7FF4F
:104E400005460DB12846A2E7E06B0078C12801D0E5
:104E500002209CE7B7F5187F04D2F0192022E16BFD
:104E6000FEF7CFFE07F1200007464045D9D3B7F53E
:104E7000187F0AD83046FFF7C3FE8146B01CFEF704
:104E80003DFE814501D0022081E700207FE770B51B
:104E900005460C46696901F13400FEF735FEA06055
:104EA000696901F13800FEF73BFEC4E90401686955
:104EB00090F8210000F00200E0710020E06170BD78
:104EC00070B504460D4628682060286AA06095F8F1
:104ED0002400E071686A20F0FF000021C4E90401A9
:104EE0000020E061A86AE0642046E16CFFF726FC40
:104EF00006461EB92046FFF73EFF0646304670BD07
:104F00002DE9F0410446206845692846FFF778FE00
:104F100080464146A81CFEF734FE6878471C2046B0
:104F2000E16CFFF70BFC064618E0A16B2068FEF76A
:104F30003EFF064606B113E020222946E06BFEF74D
:104F400060FE01202168C870781E070000D107E0CC
:104F5000203500212046FFF746FC0646002EE4D00F
:104F600000BF0EB1012E02D13046BDE8F081022013
:104F7000FBE72DE9F04704460E464022002120467B
:104F8000FEF74CFE85202070C02084F820004025CC
:104F90000020804607464FF0010900BFC122284685
:104FA0006D1C2254002228466D1C225400BFB9F10A
:104FB000000F06D036F817005FEA000901D0781C10
:104FC000C7B260194946FEF7DCFDAD1C05F01F00B5
:104FD0000028ECD108F1010000F0FF0836F81700B6
:104FE0000028DBD184F8237008F10100607030469E
:104FF000FFF723FE8246514604F12400FEF7C1FD6F
:10500000BDE8F0872DE9F05F04468846042627684E
:105010004FF0FF0AD3466CE03846A16BFEF7C7FE9F
:10502000064606B168E0E06B05780DB9042663E03A
:105030003878042814D1B8F1000F02D0832D51D153
:105040005AE0852D4ED1206BE0642046FFF793FE99
:10505000064626B97869007900F03F00A0714BE060
:10506000E06BC07A00F03F0984F80690E52D0AD085
:105070002E2D08D029F02000082801D1012000E0C1
:105080000020404502D04FF0FF0A2BE0B9F10F0F8E
:105090001CD105F0400038B1E06B90F80DB005F080
:1050A000BF05AA46206BE06455450BD1E06B407B01
:1050B000584507D1E16B3869FFF7B0FC10B1AAF190
:1050C000010000E0FF2000F0FF0A0BE0BAF1000F42
:1050D00004D1E06BFFF784FD584502D04FF0FF305C
:1050E000E06409E000212046FFF77DFB064606B19B
:1050F00002E0A06B00288FD100BF0EB10020A0639A
:105100003046BDE8F09F2DE9F04F85B00446256894
:1051100000212046FFF712FB07461FB1384605B0B5
:10512000BDE8F08F287804284CD12869FFF785FD69
:1051300001903EE0696901F12400FEF7DFFC01996E
:10514000884200D035E0686990F8230003904FF062
:10515000400A002002901FE00AF01F0008B90AF17F
:10516000020A696901EB0A00FEF7C8FC009002F030
:1051700055F883462A69029932F8110002F04EF878
:10518000834500D00BE00398401EC0B203900AF1A3
:10519000020A0298401C029003980028DCD100BF4C
:1051A000039828B92969029831F8100000B906E07F
:1051B00000BF00212046FFF725FF0700BAD000BF3F
:1051C0003846ACE74FF0FF09CDF810904FF0FF30B4
:1051D000E06400BF2846A16BFEF7E9FD074607B172
:1051E00062E0E06B06780EB904275DE0E06BC07A00
:1051F00000F03F0884F80680E52E05D008F008008E
:1052000040B1B8F10F0F05D04FF0FF094FF0FF305C
:10521000E06442E0B8F10F0F22D14B20005D00F0B6
:105220004000A0BB06F0400038B1E06B407B04902A
:1052300006F0BF06B146206BE0644E450CD1E06B32
:10524000417B0498814207D1E16B2869FFF79CFB01
:1052500010B1A9F1010000E0FF2000F0FF091CE0FF
:10526000B9F1000F06D1E06BFFF7BAFC0499884250
:1052700000D119E04B20005D00F0010040B90B2285
:1052800004F14001E06BFEF7D2FC08B90CE004E049
:105290004FF0FF094FF0FF30E06400212046FFF798
:1052A000A2FA0746002F95D000BF384637E72DE910
:1052B000F04F9BB0044626684B20005D00F0A00034
:1052C00018B106201BB0BDE8F08F4FF0000B01E0D5
:1052D0000BF1010B306930F81B000028F8D1307851
:1052E000042866D10BF10E000F21B0FBF1F000F1A4
:1052F000020949462046FFF7E4FA05460DB1284663
:10530000E0E7A9F101002022216B02FB1010E0640C
:10531000E07900F00400002845D0E07920F0040096
:10532000E0712046FEF7B0FF05460DB12846C9E7FB
:105330004FF0FF322046616BFEF7C1FF05460DB10D
:105340002846BFE7A06870B321466846FFF7B8FD5E
:1053500005460DB12846B5E770894002D4E904310D
:10536000181841F10001C4E90401D4E9047371691A
:1053700001F138003A46FEF716FCD4E9047371696E
:1053800001F128003A46FEF70EFCE07940F00100FA
:10539000716981F821006846FFF7B2FD05460DB13D
:1053A00028468FE700BFD6E90410FFF7E2FD002092
:1053B00088E70C2204F1400117A8FEF722FC9DF8B3
:1053C000670000F0010028B340214B2001554FF049
:1053D000010A0EE0534617A904F140003269FFF7B5
:1053E0009CFB2046FFF78FFE054605B104E00AF15D
:1053F000010ABAF1640FEDD300BFBAF1640F01D115
:1054000007205FE7042D01D028465BE79DF8671071
:105410004B2001559DF8670000F0020030B10BF100
:105420000C000D21B0FBF1F0401C00E00120814692
:1054300049462046FFF745FA054675BBA9F101002C
:105440005FEA000929D0206BA0EB49112046FFF745
:1054500075F905460DBB04F14000FFF7C1FB16903E
:1054600000BF3046A16BFEF7A2FC054605B113E074
:1054700009F0FF02E16B3069169BFFF710FB01207A
:10548000F07000212046FFF7AEF9054625B9A9F1D5
:1054900001005FEA0009E4D100BFC5B93046A16B45
:1054A000FEF785FC054695B920220021E06BFEF74A
:1054B000B5FB0B2204F14001E06BFEF7A2FB4B2091
:1054C000005D00F01800E16B08730120F0702846C1
:1054D000F8E62DE9F04104462668276BE06C401C95
:1054E00008B9002003E02046E16CFFF727F90546E4
:1054F0002DBB00BF3046A16BFEF759FC054605B138
:1055000019E03078042806D1E06B007800F07F00C5
:10551000E16B087002E0E520E16B08700120F0709B
:10552000206BB84200D306E000212046FFF75BF96C
:105530000546002DDED000BF042D00D102252846EF
:10554000BDE8F0812DE9F04707460C46D7F800A0EA
:105550000020A076B86B08B9BDE8F0879AF8000083
:10556000042805D12146DAF81400FFF799FBF3E788
:10557000F86C401CA8B30025A946A84622E0404686
:1055800008F10108DAF8102032F81060B9F1000FC4
:1055900007D1B6F5584F04DBB6F5604F01DAB146D6
:1055A00010E0C5F1FF0204F11A03591946EA094057
:1055B000FEF7B7FB06460EB9002509E035444FF06B
:1055C000000900BFDAF8100030F818000028D6D122
:1055D00000BFB9F1000F00D00025002104F11A002E
:1055E00041550020054680461BE0404608F1010871
:1055F000FA6B165C202E00D113E0052E00D1E526B3
:10560000B8F1090F07D10C2D05D22E2228466D1CAA
:1056100004F10D010A5428466D1C04F10D010E54CD
:1056200000BFB8F10B0FE0D3002104F10D0041558C
:10563000A07EA8BB35B93F2228466D1C04F11A0193
:105640000A5424E00020054680461AE004F10D00CB
:1056500010F80860412E0EDB5A2E0CDCF86B007B34
:10566000B8F1090F01D3102100E00821084010B162
:1056700006F1200086B204F11A00465508F101082F
:105680006D1C04F10D0010F808000028DED1002187
:1056900004F11A004155F86B007B08B900206073D3
:1056A000F86BC07A2073F96B01F11C00FEF72CFA3D
:1056B0000021C4E90001F96B01F11600FEF71EFAA2
:1056C0006081F96B01F11800FEF718FA208100BF24
:1056D00042E770B504462168481C20600D78612DB2
:1056E00002D37A2D00D8203DE8B2FEF7BCFA68B1AB
:1056F00021680878FEF7CEFA30B12168481C206096
:10570000087840EA052000E000200546284670BDE4
:105710002DE9FF4782B0044690461D4607E003A8E6
:10572000FFF7D7FF18B9002006B0BDE8F0875FEAA1
:105730000800A8F10108F2D1207810B90DB10120BC
:10574000F2E700BF01940398009000BF0198007831
:105750003F2803D0019800782A2822D100208246D1
:10576000074600BF019810F8011B01903F2901D1A5
:105770007F1C01E04FF0010A019800783F28F1D02A
:10578000019800782A28EDD053463A46DDE900100A
:10579000FFF7BEFF08B10120C6E7009890F800901F
:1057A0000EE001A8FFF795FF06466846FFF791FF58
:1057B00081464E4500D003E0002EC7D10120B3E75B
:1057C00000BF03A8FFF785FF15B1B9F1000FB9D1EC
:1057D0000020A9E72DE9F34F85B0814606980068BF
:1057E0000290D9F80000D0F810A0002500BF02A850
:1057F000FEF771FA83460BF1010018B9062007B0D5
:10580000BDE8F08FBBF5803F05D34FEA1B42284629
:105810006D1C2AF810201FFA8BF4202C03DB2F2C90
:1058200001D05C2C00D111E0802C06DA2146F7A0D3
:10583000FEF70FFA08B10620E1E7FF2D01D306209D
:10584000DDE728466D1C2AF81040D0E700BF02E0D3
:105850000298401C0290029800782F28F8D00298F5
:1058600000785C28F4D0029906980160202C01DAB7
:10587000042000E00020064608E0681E3AF81040C8
:10588000202C02D02E2C00D002E06D1E002DF4D171
:1058900000BF00202AF815000DB90620AFE7002749
:1058A00000E07F1C3AF817002028FAD01FB93AF818
:1058B00017002E2801D146F0030600E06D1E25B129
:1058C000681E3AF810002E28F8D10B22202109F189
:1058D0004000FEF7A3F94FF00008CDF81080082033
:1058E000039000BF38467F1C3AF8104004B966E0C8
:1058F000202C03D02E2C04D1AF4202D046F0030658
:10590000F0E7DDE90310884201D2AF4216D10398D7
:105910000B2802D146F0030651E0AF4201D046F019
:105920000306AF4200D94AE02F46082004900B201E
:1059300003904FEA88604FEA1068D3E7802C0ADBB7
:1059400046F00206204601F069FC4FF46A710190AE
:1059500001F080FC0446FF2C11DD0398401E0499E1
:10596000884204D846F0030603980490BAE722124E
:105970000498411C049109F140010A5418E024B133
:105980002146A5A0FEF765F918B15F2446F003068D
:105990000EE0412C03DB5A2C01DC48F00208612C9C
:1059A00006DB7A2C04DC48F00108A4F1200084B264
:1059B0000498411C049109F140010C5492E700BF86
:1059C00099F84000E52802D1052089F840000398A5
:1059D000082803D14FEA88604FEA106808F00C00ED
:1059E0000C2803D008F00300032801D146F002067A
:1059F00006F0020048B908F0010008B146F01006B0
:105A000008F0040008B146F008064B2000F80960D1
:105A10000020F4E62DE9F3410446276802E00198EE
:105A2000401C0190019800782F28F8D00198007848
:105A30005C28F4D00020A060E06101980078202864
:105A400008D280214B20015500212046FEF776FE2A
:105A500005463EE000BF01A92046FFF7BBFE054614
:105A600005B135E02046FFF74EFB05464B20065DAD
:105A70003DB1042D04D100BF06F0040000B9052596
:105A800026E006F0040000B122E0A07900F010004A
:105A900008B905251CE0387804280ED1A0682062DA
:105AA000206920F0FF00E17908436062E06CA062A9
:105AB00021463846FFF7EBF909E0208EC0F30802D3
:105AC00007F13C0011183846FEF739FFA060C2E725
:105AD00000BF2846BDE8FC8130B502464FF0FF30DC
